:020000040801F1
:1000000000000220E1520108F5520108F5520108F2
:10001000F5520108F5520108F5520108F5520108A0
:10002000F5520108F5520108F5520108F552010890
:10003000F5520108F5520108F5520108A1610108C5
:10004000F5520108F5520108F5520108F552010870
:10005000F5520108F5520108F5520108F552010860
:10006000F5520108F5520108F5520108F552010850
:10007000F5520108F5520108F5520108F552010840
:10008000F5520108F5520108F5520108F552010830
:10009000F5520108F5520108F5520108F552010820
:1000A000F5520108F5520108F5520108F552010810
:1000B000F5520108F5520108F5520108F552010800
:1000C000F5520108F5520108F5520108F5520108F0
:1000D000F5520108F9520108084909488B68094A94
:1000E0004FF0000C1A4480F808C003F55B03064883
:1000F00003F53A4382608B60012070471C000020AA
:100100002800002000BADB8010000020002070478B
:100110000E4B1888B8B110B40D4A0E4B146893F802
:1001200000C0013810D02346002219460132634432
:1001300082420B60F9D10CFB0242074B0021116097
:100140001C6010BC704770472246F6E7480000204C
:1001500044000020400000203C00002010B48268D1
:10016000D0E90034EFF3108172B6DBB2012B0CD072
:10017000022B04D1226081F3108810BC7047D2B2E8
:10018000227081F3108810BC704792B2228081F3F4
:10019000108810BC704700BF704700BF816982683B
:1001A000CB6810B4C4696340CB6090F8303083F002
:1001B0000103D9074CBFC168016980F830305B0783
:1001C0000A4403D4826010BC012070474369D11AED
:1001D0000029F7DB034A42601A46826010BC012006
:1001E000704700BF4D030108EFF3108C72B614493D
:1001F0000B68834202D110E083420BD01A461B6881
:10020000002BF9D14B68834204BF0E4B4B608CF33B
:100210001088704703681360F4E70B4B026800B561
:10022000D0F808E0C3F808E01A600B604B6883421E
:1002300004BF044B4B608CF310885DF804FB00BFD7
:10024000280000201C0000200400002008B5014602
:1002500072B6014807F01CFBB800002008B5042066
:10026000FFF7F4FF10B58168EFF3108E72B6174CEC
:1002700023689A688A1A002A0BDB9C461B689A68D6
:100280008A1A002AF9DA0360CCF800008EF310888D
:1002900010BD0F4A52688A1A002A11DB0D4A934298
:1002A00008BF1B68036091604FF0E0230A491060AB
:1002B00022604FF0806000225A619A614860E5E751
:1002C000A27A002AEAD10320FFF7C0FF280000200D
:1002D000001000E00400002000ED00E070B50E4DBD
:1002E000296891B90D4E047833680D4803EBC40CAE
:1002F00084454FEAC4020BD898183060184607F0BE
:10030000CFFA084A2860147070BD0A20FFF79EFFDC
:100310001120FFF79BFF00BF88010020B0000020E4
:1003200000FE01208C01002008B50820FFF78EFF99
:1003300008B5054A937A23B1022B1CBF00239372A0
:1003400008BD0220FFF782FF28000020836A70B5F5
:10035000002B00F092809A68196881624A49866988
:10036000C4690D68002A14BF4FF0010C4FF0000C57
:1003700022D1240434611D600B6090F83030856A0E
:1003800003F01004C3F3001383F00103B2FA82F107
:10039000DBB2490999422BD0036A4BB381684CF018
:1003A000040C0B44002D3ED14CEA040C436180F850
:1003B00030C08360012070BD34611D600B60436AF2
:1003C0009342DAD9056A866A8168D5B10D44002E58
:1003D00047D190F83030456103F0100343F0070334
:1003E00080F8303011444B1B002B38DA436A13E09D
:1003F0005DBB4CEA0404002380F83040436118469A
:1004000070BD90F8304004F010047EBB44F003044B
:100410004661114480F830401C4C9B1AC0E90141F0
:10042000C0E90323C6E76D685B1B002B28DB90F84F
:100430003030456103F0100343EA0C031CF0020F57
:1004400080F83030CED12B46B3E76D6845614CF073
:10045000040C44EA0C0480F830402B46A9E7856080
:10046000A8E72B464FF0070C7568DDE77568456116
:1004700044F0070480F83040B4E71520FFF7E6FEAB
:100480001320FFF7E3FE00BF3C0000209D010108A0
:100490000FB42DE9F04FDFF844A285B09AF8003090
:1004A0000E9DDBB223B105B0BDE8F04F04B070473C
:1004B0008B4E01228AF8002031780FAC0394C9B228
:1004C000884A92F800805FFA88F8414503D3137098
:1004D000337098461946AB7803EB0802602A40F265
:1004E000F280EB7843445B1A602B07D900238AF82B
:1004F000003005B0BDE8F04F04B07047DFF8E4917C
:10050000002789F800703178C9B2774B0093A8EBC7
:10051000010842461944184607F034F937705FFA6B
:1005200088F389F80030714B42F2AC02DA60AB78A4
:10053000009A052B02EB080B40F28C80C8F1600793
:100540009F422A882979AD6828BF1F46053F0BF1D5
:1005500002037F2A1F4406D9D30963F07F038BF877
:1005600002300BF1030302F07F0203F8012B002994
:100570006AD005EB01097E1CCDF8048014E0063A30
:10058000012A00F2A880D4F80080F91A8845ADD27B
:1005900003F8018B42466168184607F001FA0346EA
:1005A000083443444D454DD0991C8F429ED315F8D5
:1005B000012B052A33D0E2D854F8042B02F1200095
:1005C0007F2827D902F58050B0F5804F1DD302F562
:1005D0000020B0F5001F79D302F1806CBCF1805F80
:1005E00003F1010007D34FEA127C6CF07F0C83F813
:1005F00000C003460846510D61F07F0119700346A3
:10060000910B61F07F0103F8011BD10961F07F01BB
:1006100003F8011B02F07F0203F8012BC2E754F834
:10062000040B0278591C2AB909E001F8012B10F8D3
:10063000012F0AB1B142F8D1CA1A013AD2B21A70E6
:100640000B46AFE7DDF804809F42FFF44FAFA3EB0A
:100650000B030333002B3FF449AF254A0098117870
:10066000DD1EDAB200F808208BF8011030D00BEB59
:10067000050458464FF6FF7110F8016B4E4086EAAC
:100680000616F6B2090AF70041EA062187EA1616AD
:10069000714084420EB2EFD1090AF6B20BF8051090
:1006A0009B4402EB08037E220BF8026C0BF8012C32
:1006B000DBB20E4A0B4842F2AC010370D16000235A
:1006C0008AF8003015E7084A009231E7184696E7A5
:1006D000FF263146E2E70620FFF7B8FDB400002010
:1006E000AD000020AC0000204C000020003801408C
:1006F00000000020000000002DE98048AF4BDFF82B
:10070000C0B25C68DFF8BC9295B0AF4991F908308F
:10071000002B00F07D85A94B5A6872B691F908301C
:10072000002B40F0848662B6A44B5B689B1A23447E
:100730000493A64BA4491B780122DBB20A72E3B1F1
:10074000DFF88CA2DFF88C82A04A9AF800009B4C5C
:1007500000231370D8F80030FF250135E9B203EB10
:10076000C10107E00A4652F8086B5E4500F0C083FD
:1007700011460135EDB28542F4D3974B1B78DBB2BD
:10078000DBB1DFF84CA2DFF84C82934A9AF8000004
:10079000D8F8006000231370FF240134E2B206EBA6
:1007A000C20207E0134653F8081B494500F0C08316
:1007B0001A460134E4B28442F4D3884B1B78DBB28E
:1007C000E3B1DFF80CA2DFF80C82844A9AF800004B
:1007D000D8F80060824C00231370FF250135EAB27F
:1007E00006EBC20207E0134653F8081BA14200F0D3
:1007F000C5831A460135EDB28542F4D3794B1B7897
:10080000DBB2E3B1DFF8C8A1DFF8C881754A9AF816
:100810000000D8F80060744C00231370FF250135E8
:10082000EAB206EBC20207E0134653F8081BA142E6
:1008300000F0DE831A460135EDB2A842F4D86B4BC6
:100840001B78DBB2E3B1DFF888A1DFF88881674A63
:100850009AF80000664C00231370D8F80030FF258A
:100860000135E9B203EBC10107E00A4652F8086B13
:10087000A64200F09F8311460135EDB2A842F4D89C
:100880005C4B1B78DBB2F3B1DFF844A1DFF84481A5
:10089000584A9AF80010D8F80000574D0023FF245A
:1008A00013700294029C0134E2B200EBC20207E032
:1008B000134653F8086BAE4200F0B5831A46013474
:1008C000E4B2A142F4D84D4B1B78DBB2E3B1DFF8C0
:1008D00000A1DFF80081494A9AF80050D8F800706A
:1008E000474E00231370FF240134E2B207EBC2022B
:1008F00007E0134653F8081BB14200F060811A4626
:100900000134E4B2AC42F4D33E4B1B78DBB2E3B12A
:100910003C4ADFF8BCA0DFF8BC803B4D00231370DD
:10092000FF249AF80000D8F800300134E1B203EB5C
:10093000C10107E00A4652F8086BAE4200F04B8155
:1009400011460134E4B28442F4D3304B1B78DBB25D
:10095000E3B12E4ADFF878A0DFF878802C4D002331
:100960001370FF249AF80000D8F800300134E1B287
:1009700003EBC10107E00A4652F8086BAE4200F0F3
:100980003D8211460134E4B28442F4D3214B1B78FA
:10099000DBB2002B4DD01F4ADFF834A0DFF83480E3
:1009A0001D4D00231370FF249AF80000D8F8003082
:1009B0000134E1B203EBC10138E000BF001000E0F8
:1009C00081280108E12601082800002058010020A4
:1009D0008C010020880100205C01002060010020C3
:1009E000F9400108640100209D45010868010020CC
:1009F000254501086C0100202541010870010020F7
:100A000081410108740100207D5301087801002014
:100A1000095401087C010020555401080A4652F887
:100A2000086BAE4200F01F8211460134E4B28442EA
:100A3000F4D3804B1B78DBB203B37E4ADFF8F88136
:100A4000DFF8F8A17E4F00231370FF23CDE90238B1
:100A5000D046039B98F800001B68029C0134E1B269
:100A600003EBC10107E00A4652F8085BBD4200F003
:100A70000B8111460134E4B28442F4D3714B1B78EC
:100A8000DBB2E3B16F4ADFF8B4A1DFF8AC816E4DA1
:100A900000231370FF249AF80000D8F800300134C6
:100AA000E1B203EBC10107E00A4652F8086BAE421F
:100AB00000F0648111460134E4B28442F4D3634B04
:100AC0001B78DBB2E3B1DFF874A1DFF86C815F4A19
:100AD0009AF800605E4D00231370D8F80030FF24B0
:100AE0000134E1B203EBC10107E00A4652F8080BFA
:100AF000A84200F0ED8111460134E4B2A642F4D8D8
:100B0000544B1B78DBB223B1524A0023137005F01B
:100B1000D9FB514A514B4AF6AA2111605A6872B664
:100B20004F490B689B1A002BB8BF0A6062B64D4B49
:100B30001A78D2B21546002A00F02E834A4B1C7850
:100B4000E10719D4042A40F2278348490E78731F1D
:100B50003B2B00F202834B7823F00F01102907D1C1
:100B6000B242C0F01983424FB95D7E2900F0E184A2
:100B70003D4B44F001041C703C487E2106F0B0FF60
:100B800030B13A4BC01A384B04F0FE041C70451CBF
:100B9000A30706D4344A44F0020313703548FFF724
:100BA00077FC202D07D1344930482A4606F0CAFE8A
:100BB000002800F08D842E464FF0FF37D3E25068B6
:100BC00000283FF4A1AE037DDB077FF58DAE214603
:100BD00004F014FA88E64E68002E3FF4B6AE727D3B
:100BE000D7077FF5A2AEF37D2F2B40F21584317D20
:100BF000002900F03984012900F0858406F11D07E1
:100C00003023328B337721461C480097FFF740FC96
:100C1000F37D328B303BDBB2002101322F2B317759
:100C2000F375328340F29683154B1972154A0123EE
:100C3000137076E680010020880100208C010020DE
:100C4000017301088401002039710108900100201E
:100C5000415501089401002000300040001000E0E0
:100C600098010020600200209C010020A0010020CB
:100C70009F010020CC890108807B0108E4890108DC
:100C800028000020740100204D68002D3FF4F6AECE
:100C90006A7B002A3FF4E2AE05F1200393E80300EB
:100CA00007AA2B7B0294D5E906EC82E80300AD4A43
:100CB000059303F117064FF0000A72B6DDE9070449
:100CC000C3686340C36051681C3153685B1A002BD2
:100CD000FBDBC3686340C360DEF8080000EA0C0079
:100CE000003818BF012062B651681C3153685B1A86
:100CF000002BFBDB013E40EA4A0ADED2059B72B6BE
:100D00000022697B6A7362B601222AFA03F602FAAC
:100D100003F3300203F1FF3348BF46F07F4633EA66
:100D20000A0300F064834FF0004380266B610023C8
:100D300018461946002261F3070260F30F2263F39D
:100D4000174295F82C30E9180433DBB266F31F62C2
:100D50002F2BC1F82D2085F82C307FF67AAE05F1C7
:100D60002D012A8D804800910299FFF791FB002305
:100D700085F82C302B8D01332B856AE64E68002ECA
:100D80003FF49DAE327F002A3FF489AE07AB0027C7
:100D9000ADF81C709F70B0690322012102F0B2F817
:100DA00037779DF81D309DF81C209DF81E70B06DA2
:100DB0001B0243EA02431F431B0248BF47F07F4721
:100DC000394605F091FC96F82230F2180433DBB274
:100DD0002F2BC2F8237086F822307FF65CAE06F126
:100DE0002301F28B604800912146FFF751FB00235D
:100DF00086F82230F38B0133F3834CE64E68002EE5
:100E00003FF4C4AD327ED2077FF5B0ADF38A2F2B0D
:100E100040F2B08207AF74233A468DF81C3006F1D9
:100E20001F07302301213069009703F081FE02F093
:100E3000EDF9F28A4C483023303AB377F2822146FA
:100E4000728B0097FFF724FB738B01337383F38A54
:100E500000222F2BB27740F2AB82444B1A72444AE5
:100E6000012313707EE54E68002E3FF4E2AD327E22
:100E7000D7077FF59DADF38A2F2B40F21F8207AF76
:100E800072233A468DF81C3006F11F0730230121EA
:100E90003069009703F04CFE02F0B8F9F28A32484C
:100EA0003023303AB377F2822146728B0097FFF7F6
:100EB000EFFA738B01337383F38A00222F2BB277FF
:100EC00040F21A82294B1A722A4A012313706BE5E9
:100ED000486800283FF414AE027DD7077FF500AEC6
:100EE000214605F0C5FD9AF80060D8F80030F7E516
:100EF000496800293FF441AC91F8202052077FF562
:100F00002CAC606872B691F8202091F8213022F064
:100F1000040681F8206062B6009002F001021648D3
:100F20002946FFF7B5FA9AF80000D8F8003014E423
:100F30005568002D3FF441AC95F82A2095F82B30E8
:100F40009A427FF42AAC72B695F82A2095F82B3095
:100F5000934200F0608162B69AF80000D8F8006011
:100F60001BE400BF001000E0E48901082800002015
:100F7000780100207C010020688A0108516800295E
:100F80003FF43CAC0B7FFF2B7FF428AC72B68B7C1C
:100F9000002B00F064814A7F0A7762B6CA7EB948A6
:100FA000133100912946FFF773FA9AF80000D8F838
:100FB000006013E4496800293FF462AC91F82020F6
:100FC000D6077FF54DAC72B691F820308A6823F0D1
:100FD000010381F82030D1E9063162B6AA480091B8
:100FE0002946FFF755FA9AF80000D8F8003037E4A0
:100FF0005368002B3FF423AC1A7F17077FF50FAC23
:1010000072B61A7F22F008021A7762B69A7F9F485A
:101010002833D2082946FFF73BFA9AF80000D8F89F
:101020000060FFF7FCBB56680294002E3FF44BAC07
:10103000F37FDA077FF536AC72B6F37F23F0010356
:10104000F377B368039362B6B37F032B19D8DFE855
:1010500003F01D6035020023ADF81C30B06907AB0A
:101060000222012101F04EFF029B0093BDF81C30CB
:1010700003995ABA1B0A304603F0060392B203F0F2
:1010800091FF9AF80010D8F800000BE400230793B2
:10109000B06907AB0422012101F034FF079A029BDB
:1010A000039900933046C2F3026312BA03F07AFF49
:1010B0009AF80010D8F80000FFF7F4BB012107915F
:1010C00007AF3B46B069032201F01CFF07223B46F5
:1010D000079FADF81C20B0690121022201F012FF28
:1010E000029B00933FBA9DF81D3003993C0A04F01F
:1010F000010CC7F30F2723F0030330463A4643EAB7
:101100000C0303F04FFF9AF80010D8F80000FFF727
:10111000C9BB0C23079307AF3B46B06904220121EA
:1011200001F0F0FE0F223B46079FADF81C20B0698E
:101130000222012101F0E6FE3FBA029B03990093CF
:1011400030469DF81D3027F07F4203F02BFF9AF8C0
:101150000010D8F80000FFF7A5BB7E2E7FF408AD85
:1011600001264FF0FF370020494B1C78E4B2A51B45
:1011700040F06B81EFF3108272B6454B1B78DBB207
:101180009C4240F06E81424B1D7082F31088012F0B
:1011900002D14048FFF77CF93F4B404D404E5C6820
:1011A000049B29683268A4EB030A01315244BAF562
:1011B000803F2960326059D23A4F0AFB0AFA3868F8
:1011C0000AF1FF0300EB1323834238BF4FF0FF33D4
:1011D000DFF8D4803548D8F800A03B60A4EB0A0CB7
:1011E00084457FF692AA3248FFF752F9A24503D907
:1011F000304A1368013313602F49C8F800400023B8
:101200003B6033602B6091F90830002B7FF483AA98
:101210000494FFF78EBA01332F8B6E6985F82A305C
:1012200062B63946286E05F05FFA95F82D302B44EA
:1012300083F82E703F0A83F82F7095F82D3095F8BB
:101240002C200233DBB2591C914285F82D3080F2FC
:10125000BF809AF80000D8F80060FFF79EBA62B627
:101260009AF80000D8F80060FFF7B8BABAF5801F06
:101270000C4F80F0B98038680AF1FF031B0A0AFBA3
:101280000303A1E7388A0108148A01082C8A01089F
:1012900060020020CC890108001000E074020020E8
:1012A000700200206C02002068020020FF53EA2A2E
:1012B000C88A01086402002028000020702307AFBC
:1012C00030698DF8183006AA02230121009703F037
:1012D0002FFC01F09BFF9DF81C209DF81D30B08A6B
:1012E000120202F4F85243EA0201884238BFB18286
:1012F0002F29F1823FF7C4AD337E23F0010333760B
:1013000072B6BD4B5A68F3681344B3603046FEF7BB
:10131000A9FF62B6FFF748BBAF23ADF81C303069B8
:1013200007AB0222012101F0EDFD9DF81D305806AA
:1013300002D5728B01327283B27D012A00F0C28025
:1013400003F03F0303EB43035B00DBB22F2BF3758A
:101350003FF64DAC737D23F00103737572B6A64B57
:101360005A68F3681344B3603046FEF77BFF62B6F9
:10137000FFF7D7BA722307AF30698DF8183006AA85
:1013800002230121009703F0D3FB01F03FFF9DF8FA
:101390001C209DF81D30B08A120202F4F85243EA74
:1013A0000201884238BFB1822F29F1823FF733AD65
:1013B000337E23F00103337672B68F4B5A68F3689D
:1013C0001344B3603046FEF74DFF62B6FFF7CABA6A
:1013D00005F12E010091894832462146FFF758F861
:1013E000002385F82D3034E74FF0FF33F0E68A070D
:1013F00003D54FF08043402698E46A69002A40F004
:10140000EF803146286E05F06FF9F1B2C6F3072080
:10141000C6F30743360E8DE4337D00228DF8182085
:10142000002B3FF479AF012B5ED0F27592E774493F
:101430004FF6FF730B8162B630BF72B6704B93F9F3
:101440000830002BF7D1FFF76EB96E4B31182A1A0E
:101450001944184406F096F9694A00231372284685
:1014600088E682F310887FE607AB3122184606F043
:1014700017FAB27D012A14BFA822E8228DF81C2099
:10148000034631223069012106F11D0701F03AFDC2
:101490000DF11D033A4620469968D3F800C05C68F8
:1014A000D3F80CE0916010330DF14D018B42C2F87E
:1014B0000CE0C2F800C0546002F11002ECD1044606
:1014C000FFF79EBB990640F185800023F37541E745
:1014D0004FF000614B689A1EA3F1090022F0070249
:1014E00090425FD005F07AFC2F228DF81C2006AACE
:1014F00019463069009207AA03F01AFB01F086FE34
:101500009DF8183013E728238DF81C30B37D012B8C
:1015100004BFA8238DF81C3006F11D073069009721
:10152000302307AA012103F003FB01F06FFEFFF750
:1015300067BB791EA6F1030E013711F806C017F834
:101540000E104CEA012CBE440FFA8CFC4FF6FF71D2
:1015500017F8010B484080EA0010C0B2090A4FEAB0
:10156000C00841EA002188EA10104140BE4508B297
:10157000EED184457FF4FCAA234A24F002041470BF
:10158000224A1178994202D03546FFF707BB013352
:1015900003F00F0343F0100330461370012706F0E9
:1015A0005DF8E0E553F8095C194C1A4A53F8053C1C
:1015B000934208BFA54295D10B68DA1D22F00702BD
:1015C00093428FD172B60AA1D1E90001C3E90001AB
:1015D00005F004FC03F01F0303EB43035B00B5E6D7
:1015E000D1B2C2F30720C2F30743160EFFF7A2BB26
:1015F0009B58A16CFAE38459001000E05C8A010852
:1016000028000020A00100209C01002000000020F4
:1016100043616E426F6F7421A649A74DA74A21F01E
:1016200003012DE988480024296045F2555040F611
:10163000FF711060A24B546091604CF6CC41116078
:10164000D3F8FC109F4A41F08071C3F8FC10116878
:1016500041F0010111605460EFF3108172B64FF058
:10166000E0222025072083F8235010615461946103
:101670004FF080625A6081F31088934805F084FA35
:101680009149924B40F239128A6042F22C02CA60B0
:1016900083F825435D60012272210A2005F0D0FB0A
:1016A00022467221092005F0CBFB8948FEF7F0FEA7
:1016B00072B6884806F0E6F810B962B6FFF71CF873
:1016C00072B6854B7F499A7AD1F804A0002A00F0BF
:1016D0002282824B824998687F4A886081481160E3
:1016E00053600B6018604FF0E021754B0224947238
:1016F00000274FF080624F618F615A607A4B7B4EBA
:101700001F70FEF705FD7A4A7A4B15781C684FF07A
:10171000FF0C4FF0110E0CF10101C9B204EBC10135
:10172000634605E00A4652F8080BB04215D0114650
:101730000133DBB2AB42F5D33A468AB192F830308E
:10174000D2E9060113F0100315BF734609040161C5
:10175000016182F830309762DDE74A689C46ECE729
:10176000654E4FF0FF08174608F10101C9B204EBBE
:10177000C101434605E00A4652F8080BB0420CD0BE
:1017800011460133DBB29D42F5D8384640B1002105
:1017900041633C3000F0A8FBE6E748689846F5E76F
:1017A000DFF858814FF0FF09064609F10101C9B27F
:1017B00004EBC1014B4605E00A4652F8080B4045D0
:1017C0001CD011460133DBB29D42F5D83746C7B174
:1017D0003846FEF709FD07F10C00FEF705FDFB6931
:1017E00033B100211A461B68C2E90011002BF9D160
:1017F0000023FB6187F822303B84D6E74F68994687
:10180000E5E7DFF8EC903E4E4FF0FF08DFF8E4B07C
:10181000BE464FF0000CDBF8005099F8004008F18C
:101820000101C9B205EBC101434605E00A4652F881
:10183000080BB04221D011460133DBB2A342F5D3ED
:1018400072465AB3136AEFF3108172B61C68E00651
:1018500016D481F3108892F82B30C2F860C0002BA8
:10186000D9D00133D16882F82A3053690B445361CF
:1018700093601046FEF7F6FCC8E74A689846E0E732
:101880001C6824F002041C601C6824F010041C6016
:101890009C6824F4A0049C60DB6CDAE7194E4FF0DE
:1018A000FF0C96460CF10101C9B205EBC10163467C
:1018B00030E000BF7F020020B00000200030004078
:1018C00000ED00E0001000E00038014000E100E021
:1018D000F88A0108B8000020280000201C00002021
:1018E0000400002010000020B40000203D1D01086D
:1018F0008C010020880100206D2501088128010845
:10190000E1260108E52301080A4652F8080BB04217
:1019100010D011460133DBB29C42F5D8774667B14F
:101920003B7CDA07BED5D7E90212180748BF12047C
:101930000A61B7E74F689C46F1E7784E4FF0FF0821
:1019400008F10101C9B205EBC101424605E00B46B1
:1019500053F8080BB0420DD019460132D2B294426E
:10196000F5D83B464BB11A7918680021053301F0D0
:10197000C9FAE5E74B689046F4E7694EDFF8A4E161
:101980004FF0FF0C1F460CF10101C9B205EBC1017C
:10199000634605E00A4652F8080BB04213D01146E0
:1019A0000133DBB29C42F5D8394679B10B690A8B19
:1019B00003FB02F202F58042CB68D20B1A60C1F839
:1019C00004E0CF61DFE749689C46EEE7564E4FF0F2
:1019D000FF080F4608F10101C9B205EBC1014346FA
:1019E00005E00A4652F8080BB0421AD011460133FE
:1019F000DBB29C42F5D8B946B9F1000F19D099F87D
:101A00001C309B0611D5D9E90301012205F036FBF4
:101A100099F81C3003F0300343F0010389F81C30BF
:101A2000D8E7D1F804909846E6E7D9E903321A617D
:101A3000EEE73E4EFF27791CC9B205EBC1013B46DC
:101A400005E00A4652F8080BB0420FD011460133A8
:101A5000DBB29C42F5D84A465AB11369D1681804E2
:101A60009369526908611B041361E4E74A681F46E1
:101A7000F2E72F49FF239146581CC0B205EBC00086
:101A800005E0024652F8086B8E421DD01046013325
:101A9000DBB29C42F5D8EFF30383C3F308034BB1E9
:101AA0004FF080736FF0060208B402A102B41FB5B4
:101AB000104700BF1F4B01229A7262B61E48DA7AA5
:101AC0005146FEF7E5FCF8E54268002AE3D01069CC
:101AD000D2F80CB09769166A4FEA004E906A4FEA46
:101AE000004C106B4FEA0048906BCBF810E0D2F836
:101AF00014E03F04CEF81070D76936043E61566A90
:101B0000C6F810C0D66AC6F81080566B0004306163
:101B100082F80890B0E7D872DBE500BF412B0108DE
:101B2000E54101088D4001089D450108A5460108D1
:101B30003947010828000020E08A010800B50A4B57
:101B40000A4A9B7A11880A4A0A48126883B0003B05
:101B5000009118BF0123003918BF0121FEF798FC3E
:101B600003B05DF804FB00BF2800002048000020FF
:101B700038000020A48A0108024B03485968FEF788
:101B800087BC00BF001000E0B08A0108064A074980
:101B9000074B526809681B680648914294BF194672
:101BA000591CFEF775BC00BF001000E06802002061
:101BB00064020020BC8A01080168B1F55D6F0DD890
:101BC000027940F6D1535018984202D9C1F1D1029E
:101BD000D2B2054B05480B44FEF75ABC024B0348F2
:101BE00000220B44FEF754BCF87B0108D48A01089C
:101BF000D0E90031EFF3108272B6DBB2012B0ED0C8
:101C0000022B05D1096882F310880848FEF740BC12
:101C10000978C9B282F310880448FEF739BC0988F4
:101C200089B282F310880148FEF732BC8C8A010821
:101C3000034602485A681978FEF72ABC988A0108B8
:101C400038B50A4D0A4B2C68211899420BD8C31C91
:101C500023F0030302462344002120462B6005F0B5
:101C60001FFE204638BD1120FEF7F0FAB00000201C
:101C700000FE012038B50D4B93F800C084450346A3
:101C800010D910460A4A126852F8334002EBC305D5
:101C900044B9084C24882CB942F83310FFF7D0FF20
:101CA000686038BD0B20FEF7D1FA00BF8C01002020
:101CB000880100204800002008B50F20FEF7C6FA72
:101CC00008B50E20FEF7C2FA70B5164E33882BBB4E
:101CD000154B16491A78032A9CBF04221A70144B1C
:101CE00005461868002403469C4613448B420FD8CF
:101CF0000134B4F5806FF7D1181AFFF7A1FF0D4B2F
:101D000034801860FEF704FA0B4B2A681A6070BD25
:101D10006346002CF0D11020FEF798FA0D20FEF754
:101D200095FA00BF480000204000002000FE01207E
:101D3000B0000020440000203800002030B5D0E979
:101D400001120446003A83B018BF0122684605F02C
:101D5000ABFA154920783422FFF78CFF0346DDE902
:101D6000000103F1180282E803001049E2680D88BF
:101D70000020111AA26818BF0121121A18BF0122EF
:101D800042EA011283F8302022691A62C3E90A008C
:101D90003DB9074B1A780B2A9CBF0C221A7003B06E
:101DA00030BDFFF78DFF00BF3D1D0108480000203A
:101DB0004000002008B50C20FEF748FA10B50D4B86
:101DC00002781B78934210D90B4B0C491B6853F8CF
:101DD00032408C4203EBC20307D15B6872B69A6A49
:101DE0002AB942685A6262B610BDFFF7E3FF1420B9
:101DF000FEF72CFA8C010020880100203D1D01080F
:101E000010B5284B01781B788B4247D9264B1B68AD
:101E1000024653F831402548844203EBC1033DD1CB
:101E20005868EFF3108472B621490B68002B37D045
:101E3000D3F800C0C1F800C084F3108854685C6017
:101E400092689A6072B6826A0021196022B1C26AF1
:101E50001360C36262B610BD90F830205107C0E92C
:101E60000A3314D442F0040380F8303093074461FD
:101E700008D4FEF7B9F90F4BC0E90134FEF7F2F9C7
:101E800062B610BD83681B1B002BF9DBF1E74369C9
:101E90001B1B002BE6DA1320FEF7D8F9FFF78AFFA9
:101EA000FFF70AFF8C010020880100203D1D01087A
:101EB0003C0000204D03010890F82020084903460B
:101EC00042F00402002083F8202008729A68D3F8B8
:101ED00018C004490120624408709A60704700BF2E
:101EE0002800002058010020F8B504463C38FEF7D1
:101EF0007BF9227A54F8101C54F80C3C54F8287CD6
:101F000054F8146C002502F0340012F0100C44F860
:101F1000345C44F8245C40F008004FEA01411BD0D7
:101F2000DB1B002BC8BF5B4244F8285C44F80C3C28
:101F30002072316154F8083C6BB11148016800E02F
:101F400013461A6844F8082C1960036054F8082CEA
:101F50001946002AF4D1F8BDA3EB5703002BC8BFE4
:101F60005B4244F80C3C54F8183C2072520754F879
:101F70001C0C44F828CC58BF1B0431610361D9E71D
:101F80003C00002038B5254B02781B7893423FD99E
:101F9000234B24491B68054653F83200884203EB63
:101FA000C20335D15C682046FEF71EF9A36A8BBBDD
:101FB0002A7994F83030D4E90650002A08BF00048A
:101FC000286103F01000C3F30013B2FA82F283F029
:101FD00001034FEA5212DBB214BF012100219A42E1
:101FE00001D0236A1BB9014384F8301038BD0E4A72
:101FF00052680843134440F004000C4A84F830004F
:10200000C4E9012363612046BDE83840FEF72AB9E0
:10201000FFF7D0FE1220FEF719F900BF8C01002057
:10202000880100203D1D0108001000E04D0301085B
:1020300010B5104B02781B78934218D90E4B0F49FC
:102040001B6853F832408C4203EBC2020FD1436845
:102050005168003B18BF01235B0072B691F8442021
:1020600022F00202134381F8443062B610BDFFF73C
:10207000A1FE00BF8C010020880100206D25010811
:1020800010B5114B02781B78934217D90F4B1049AA
:102090001B6853F832408C4203EBC2030ED15B68DD
:1020A000416872B65A695AB993F84420996022F08F
:1020B0000802996183F8442062B610BDFFF77AFEEA
:1020C0001620FEF7C3F800BF8C0100208801002015
:1020D0006D25010810B5184B027893F800C06245D1
:1020E00024D2164B1B6853F8321003EBC20E144A6D
:1020F00091421BD10179DEF80420614516D253F8D4
:1021000031401048844203EBC1030FD15B6802F1F8
:102110003C00EFF3108172B6146C4CB90A4C146495
:10212000DC69D463D86181F3108810BDFFF742FEEB
:102130001920FEF78BF800BF8C01002088010020D9
:102140006D25010881280108E91E0108F8B5224E15
:102150000278337893423CD9204F21493B680546A9
:1021600053F83200884203EBC20332D15C68204648
:10217000FEF73AF86B68A360AB68A3612B7B84F829
:10218000253013B32969616184F826306B69327890
:102190001449002B0CBF0223032384F824302B7E28
:1021A00061609A4215D93A6802EBC30152F83320B4
:1021B0000D4B9A420DD1EB694A6884F827302262B0
:1021C0002046BDE8F840FEF74DB884F8243023627D
:1021D000F8BDFFF7EFFD00BF8C0100208801002053
:1021E00011280108512E01088128010838B51D4B1E
:1021F00002781B78934233D91B4B1C491B68054658
:1022000053F83200884203EBC20329D15C6872B6EE
:102210002046FDF7E9FF04F10C00FDF7E5FFE36957
:1022200033B100211A461B68C2E90011002BF9D115
:102230000022012384F8222023846B68A360AB680A
:10224000C4E9063223B9EB6884F8223062B638BD9F
:102250002046FEF707F8EB6884F8223062B638BDF6
:10226000FFF7A8FD8C0100208801002081280108CB
:1022700070B5124B02781B7893421DD9104B11494F
:102280001B68044653F83200884203EBC20313D1A3
:102290005D6872B695F82030DB0701D462B670BD78
:1022A00005F10C063046FDF79FFF63686B61304611
:1022B000FDF7D8FF62B670BDFFF77CFD8C010020F2
:1022C000880100208128010838B5294B02781B7845
:1022D000934247D9274B28491B68054653F83200DB
:1022E000884203EBC2033DD15C682046FDF77CFFCA
:1022F000236AEFF3108272B61968C90624D482F3F8
:1023000010886B686361A360AB6823612B7B84F8E2
:102310002B305A1C84F82A202A69E2602A7D84F82E
:102320002C20002184F82D10A9696183D5E90701CB
:10233000A08384F8291033B1302A15D82046BDE88F
:102340003840FDF78FBF38BD196821F002011960D0
:10235000196821F010011960996821F4A0019960B1
:10236000DB6CCCE7FFF726FD1A20FDF76FFF00BFFF
:102370008C01002088010020E126010810B50F4BD8
:10238000027819788A4217D20D4B1B6853F83240F5
:1023900003EBC20C0B4A94420ED10279DCF8040024
:1023A0008A4209D253F8324007498C4203EBC203F8
:1023B00002D15B68036610BDFFF7FCFC8C010020B6
:1023C00088010020E12601088557010800B5034671
:1023D00083B0D3E90012684604F066FF03B05DF8ED
:1023E00004FB00BFF0B5054683B00E490078142207
:1023F000FFF740FCAF686968B7FA87F204465209F4
:10240000684604F051FFDDE9000104F1080383E8A8
:102410000300002F237C0CBF0122092213432374E5
:1024200003B0F0BDE5230108D0E908311A6810B502
:10243000D4063AD5920702D55A6B8A4205D08368F2
:1024400003F534638360012010BD1A6822F0020294
:102450001A601A6822F010021A609A6822F4A00228
:102460009A6090F82A2090F82B10DB6C8A429BB27D
:102470003CD301229142038380F82A2041D8428B29
:102480009A425ED8828B9A425BD3364B002280F808
:10249000282000221A72344A4369C4680121234467
:1024A000117043618360012010BDC9B2122941D06F
:1024B00009292CD81A6901EB41044FF0070C0CFADA
:1024C00004FC22EA0C0C0422A24042EA0C021A612B
:1024D0005A6B22F01F020A435A639A6842F00102C3
:1024E0009A609A6842F4A0029A60A8E7B0F818C00F
:1024F0000132D2B263449BB29142038380F82A2016
:10250000BDD98368026913448360012010BDA1F125
:102510000A02DC6802EB42024FF0070C0CFA02FCE4
:1025200024EA0C0E4FF0040C0CFA02F242EA0E02FE
:10253000DA60CDE7DA6D22F0070242F00402DA65D4
:10254000C6E790F8283090F829200133DBB29A4290
:1025500080F82830034B9CD89A7A002A96D11B2009
:10256000FDF774FE280000205C010020F0B5054650
:102570002749007883B04822FFF77CFBEF68002FE3
:1025800004462EDD042280F844206968684604F081
:102590008BFEDDE9000104F1200383E80300002243
:1025A000A968684604F080FEDDE9000104F1280313
:1025B00083E80300174B4FF04042198822632A69D1
:1025C000E2610023C4E90D3301BB134B19780F29D5
:1025D0009CBF10211970002F09DB104B636003B002
:1025E000F0BD0ED190F8442002F00402CDE7122A8B
:1025F000F3D894F8443043F0200384F8443003B017
:10260000F0BD102380F844300022BEE7FFF758FBEE
:102610006D25010848000020400000205D2C0108C5
:1026200008B5134B01781B788B421ED9114B124A07
:102630001B6853F83100904203EBC10315D15B686E
:1026400072B693F844001A6B5B69C0064CBFD21A8D
:10265000A2EB530262B6002AB8BF5242BDE808405E
:10266000064802F14042FDF713BFFFF7A3FB00BF8E
:102670008C010020880100206D250108808A010856
:1026800010B5134B01781B788B4282B01DD9114BCA
:10269000114A1B6853F83100904203EBC10314D177
:1026A000586872B690F82420C36962B6D0E9034036
:1026B000A4680440003C18BF012408480094C2F3F9
:1026C0004002FDF7E5FE02B010BDFFF773FB00BF4F
:1026D0008C0100208801002011280108748A01085B
:1026E00070B5404A05460023406802E00133802B64
:1026F00073D012F8011B8842F8D15A11012A68D010
:10270000022A68D0032A6BD1374E384A03F01F04DF
:10271000D36A6FF3080343F00703D362536943F4AA
:1027200070435361736823F4702323F480737360E0
:10273000B2682F4B134043F46023B360F36A23F471
:102740007003F3620123B360B36D9906FCD5B36DDA
:1027500023F08003B365274BD3F8FC20D2010AD4C1
:10276000D3F8FC2042F08072C3F8FC20224A1368A0
:1027700043F00103136020494A6802F5B4624B68D4
:102780009B1A002BFBDB0523B360B26812F0040236
:10279000FBD1FE2819D1194A936843F400039360D2
:1027A000A2F5FC32D2F8203843F48063C2F8203816
:1027B000642213492878FFF75DFA0123114A80F853
:1027C0002A30C0E90864426070BD032104F038FB80
:1027D000EEE70D4E99E70D4E97E73520FDF736FDF4
:1027E000064E92E7508B0108001C02400010024088
:1027F000FDF7F1FF00ED00E0001000E000080240EE
:10280000E126010829240108000C024000180240BA
:10281000F8B52822044618490078FFF72BFAD4E9C6
:1028200001326F2B26D815490646180951F8205059
:1028300005B303F00F0301279F400439002351F82B
:10284000044FA5420ED00133072BF8D10020EFF33F
:10285000108472B6002104F0F3FA84F31088C6E9FC
:102860000357F8BD97FAA7F11020B1FA81F113FBD5
:102870000010ECE704F0E0FA11280108D08B010801
:1028800038B50F4B1A7803789A4216D90D4C226846
:1028900052F83310DD0081B90B49098869B90B4939
:1028A00042F833102420FFF7CBF923680849094A7E
:1028B0002B4458604160026138BD0B20FDF7C6FC17
:1028C0008C01002088010020480000208128010898
:1028D000B91E01088D2E010838B50D4B1A78037802
:1028E0009A4212D90B4C226852F83310DD0061B9BC
:1028F0000949098849B9094942F833101420FFF7FA
:102900009FF923682B44586038BD0B20FDF79EFCCF
:102910008C0100208801002048000020E5230108E8
:1029200038B50D4B1A7803789A4212D90B4C2268AD
:1029300052F83310DD0061B90949098849B90949DC
:1029400042F833100C20FFF77BF923682B445860C2
:1029500038BD0B20FDF77AFC8C0100208801002097
:1029600048000020212901082DE9F8432F4B027867
:102970001B78934251D92E4B2E491B6853F8324095
:102980008C4203EBC20348D1047A5D68032C49D81A
:102990002B7C13F0060F45D14368C768032B3ED844
:1029A000254A03EB430302EB830952F823603046C8
:1029B00004F0E6F98046A8B1204800231946013307
:1029C00020FA03F2974226D2082BF7D138212B7C2C
:1029D0000C4343F0040344F451742B74C5E90064C0
:1029E000BDE8F883304604F0CFF899F8071099F85D
:1029F0000400012204F024FA99F8081099F805005F
:102A0000424604F01DFA99F8091099F8060042466A
:102A100004F016FAD0E7C900D9E7FFF7CBF9362062
:102A2000FDF714FC1C20FDF711FC00BF8C010020F9
:102A300088010020E52301081C8B010800A24A043C
:102A40002DE9F0473A4A03781278077B9A4269D910
:102A5000384A126802EBC30152F83320364B9A42CF
:102A600060D1D0F804804D68B8F1020F5CD8DFF86F
:102A7000CC9059F83840204604F082F9064640B11F
:102A80002B7A2C6043F002037F002B722F71BDE87C
:102A9000F08709EBC809204604F076F899F804A0FD
:102AA00099F80580012240F20111504604F0C8F95E
:102AB000012240F20111404604F0C2F94FF0FF320A
:102AC00040F20111404604F0BBF94FF0FF3240F2F2
:102AD0000111504604F0B4F9012240F201115046B0
:102AE00004F0AEF9012240F20111404604F0A8F9C9
:102AF000504601224FF4A17104F0A2F90122404690
:102B00004FF4A17104F09CF94FF400432360482373
:102B100026604FF4B47263604923E26123620123AB
:102B20002360ADE7FFF746F93820FDF78FFB00BFC4
:102B30008C0100208801002021290108048B010854
:102B400070B5114B02791B7893421AD90F4B10497B
:102B50001B68044653F83200884203EBC20310D1CD
:102B6000257A0C4920785E6805F10802FFF782F8A3
:102B70000571E16806602A460530BDE8704004F042
:102B80000FBFFFF717F900BF8C010020880100205C
:102B9000E5230108412B01080346406B08B9586141
:102BA000704770B502682A4CB0F908105A63426841
:102BB00090F80CC026680660458920601982186B61
:102BC00011441CF00104D96093F8441018BF40422E
:102BD00028448E061863986805D5104498605D6196
:102BE00034BB012070BD9E6911F0100132445E6952
:102BF0009A6108BF6D009A605D61002EF0D0121AD4
:102C00001DD4002CEDD021B112494A68121A002AB5
:102C1000FBDBD3E90A14CA680E486240CA60426806
:102C2000D86999680244891A0029B8BF9A60D8E720
:102C3000D3E90A21D3684B40D360012070BD064D13
:102C4000AA42A8BF9860DCDA1820FDF7FFFA00BF9F
:102C50003C000020001000E080CDFDFF30B4D0E942
:102C60000814CA686240144CCA6041696268C46949
:102C7000CD072244034601F1FF3408D490F84410F4
:102C8000C90605D45C61012030BC9A6070477CB1F4
:102C9000DD689969B3F9100029442844D860881A7E
:102CA00000289961EEDB5C61012030BC99607047BF
:102CB00030BC8260FFF770BF001000E038B5334BC6
:102CC00002781B78934259D9314B32491B6853F82B
:102CD00032408C4203EBC20350D15C68EFF31082A8
:102CE00072B62D4D2B68002B4DD01968296082F3E8
:102CF000108842685A6002895A81002A40D0C1680F
:102D0000198100221A7372B694F84420C2F340006D
:102D100002F00101884205D0197B41F0010182F0E7
:102D2000010219736169B9B912F0080104D02A6867
:102D30001A602B6062B638BD606B84F8442019605D
:102D4000A8B1A26B1360A3632046FFF725FF2046BE
:102D5000FDF788FA62B638BD616B84F84420002024
:102D6000186039B1A26B1360A36362B638BDC4E9C1
:102D70000D33E9E7C4E90D3362B638BDFFF71AF841
:102D80001720FDF763FAFEF797FF00BF8C010020C4
:102D9000880100206D2501083C000020F8B5EFF304
:102DA000108772B690F82030DA071CD5044623F05D
:102DB0000503C06984F8211043F004030E4684F82B
:102DC000203050B10025D0E900233146E261C0E94E
:102DD00000559847E0690028F5D1044B00221A728B
:102DE000034B01221A7087F31088F8BD28000020D9
:102DF00058010020D0E90332996890F8243011423C
:102E00001CBFDB4303F00103DB070ED410B590F8C1
:102E10002630013B13F0FF0411D08368826980F8EB
:102E2000264013448360012010BDC269074990F811
:102E3000253080F82630C0E901120120704790F853
:102E40002710006AFFF7AAFF204610BD512E010887
:102E500010B4D0E9022301699C6890F82430D0F8BE
:102E600014C00C421CBFDB4303F00103DB076244C8
:102E700003D5826010BC01207047034B10BCC261B7
:102E80004360FFF7B7BF00BFF52D010808B5034643
:102E90000C38997DFFF782FF002008BD30B5154B37
:102EA00005781B78AB4283B022D9134B134A1B68B9
:102EB00053F83510914203EBC50319D15C6872B623
:102EC00001792046FFF76AFF2046FDF78DF904F1EE
:102ED0000C00FDF789F9002294F8213084F82020B5
:102EE00062B6074800922946FDF7D2FA03B030BD1A
:102EF000FEF760FF8C010020880100208128010876
:102F0000688A01082DE9F04F90F810B01BF0060F09
:102F100085B036D01BF0020F1C46064603680F46EC
:102F200032D119684068814204D021F04001196013
:102F3000196818601BF00101019140F00E812244D4
:102F400094420DD2013C511E14F8012F1A739A6855
:102F5000D207FCD51A7BD2B207B12270A142F3D1BD
:102F60009A6802F08202022AFAD1019B4BB10BF05F
:102F70000809D6E902E1B9F1000F40F0D280CEF89D
:102F8000101005B0BDE8F08F197FDFF8E8C198692F
:102F9000D3E904A8890756BF4FEA0841CAF8108050
:102FA000CAF81010DCF804500544DCF80410491B82
:102FB0000029FADB1BF00101019140F0B680DCF83A
:102FC0000410450801EB500CA0EB5000002AD8D0AB
:102FD000013ACDE902B654FA82FE5146654ABA4634
:102FE000013C0F46197F14F8016F11F001014FF0F9
:102FF00008094CD00021D2F804B0ABEB0C0BBBF1AC
:10300000000FF8DBEFF3108B72B6D7F80CC088EA2C
:103010000C0CC7F80CC08BF31088D3E902C716F06C
:10302000800F08BF3F04CCF8107057687600490045
:10303000F6B25FFA81FB07445168C91B0029FBDB2C
:10304000D3E90478EFF3108C72B6F96881EA0801CD
:10305000F9608CF3108819688F6859680F40002F49
:103060000CBF59464BF001015768B9F1010907EB54
:10307000050C03D0D3E90478BDE7009CBAF1000F3A
:1030800000D02170744549D0D3E90478AAE70094B0
:10309000D2F804B0ABEB0C0BBBF1000FF8DBD3E9BB
:1030A00002BC340658BF4FEA0C4CCBF810C0EFF30B
:1030B000108B72B6D7F80CC08CEA080CC7F80CC09D
:1030C0008BF310885768009C76004900F6B2C9B2AD
:1030D00007EB000C5768A7EB0C07002FFADB1F6803
:1030E0000094BF685C682740002F18BF41F00101C1
:1030F000D3E904C7EFF3108B72B6DCF80C8087EAD3
:103100000807CCF80C708BF310885768B9F10109E7
:1031100007EB050CB1D0D3E90478B9E7DDE902B6D5
:1031200023E70904CEF810102BE71BF0080FD6E9AF
:1031300002E10BF0080919D10D04CEF810500D4D25
:103140006D6805EB500C4508A0EB5000002A7FF499
:103150003FAFB9F1000FE4D111E71BF0080FD6E93A
:1031600002E100D10904CEF81010E8E6CEF8101004
:10317000E5E700BF001000E070B5104B04781B7845
:10318000A34218D90E4B0F4A196851F83450954292
:1031900001EBC4010FD186680579486833462A4699
:1031A0000121FFF7AFFE33462A4621460648BDE817
:1031B0007040FDF76DB9FEF7FDFD00BF8C010020EA
:1031C00088010020E5230108508A010870B50C4BE6
:1031D00002781B78934210D90A4B0B4C196851F8AE
:1031E0003250A54201EBC20107D1836802794868D9
:1031F000BDE870400021FFF785BEFEF7DBFD00BF94
:103200008C01002088010020E5230108013808B561
:1032100003280FD8DFE800F00B0805021E20FDF799
:1032200015F81F20FDF712F81D20FDF70FF82020DC
:10323000FDF70CF808BD00BF70B4867F84467EB1F0
:1032400000EBC600634600260122D3E908148D680E
:103250000833254218BF164351008342CAB2F4D145
:103260009CF81030B34209D09CF8111081EA060294
:10327000D243D2B283EA0600024215D19CF91C2047
:103280009CF81C308CF81160002A05DB013BDBB296
:10329000FF2B24D08CF81C30DCE9023213440120CF
:1032A00070BCCCF80830704723EA02039CF8122067
:1032B00031400B43072A8CF81030DFD8511C624490
:1032C0008CF812100949D37400230B72084A8CF849
:1032D00011600121FF2311708CF81C30DCE7034AD8
:1032E00000211172024A01211170D3E72800002049
:1032F00060010020D0E9032170B5D368446A4B40D7
:10330000D360427F90F81CE0C57F0132D2B28EF0CC
:10331000010EAA4280F81CE0264605D317E05FFAAA
:103320008CF2AA42264412D200EBD20302F007012B
:1033300093F828300B418EEA0303DB0702F1010CFE
:10334000EDD58368427733448360012070BD836884
:10335000024A426033448360012070BD0539010890
:10336000D0E9032110B4D368154C4B40D360437FA0
:10337000017F646882680133DBB281F00101012BB7
:1033800001774377016A17D0042B04D81144816078
:1033900010BC01207047436A1344E41AA31C48BFC1
:1033A000631D01EBA30114444162064B43602144B9
:1033B000816010BC01207047A41A4462E6E700BF98
:1033C000001000E0F5320108D0E9092192680346B7
:1033D0000A4080699968003A18BF012200F0010C88
:1033E00062455A6918BF0130A2EB010218BFC3E958
:1033F0000601002A04DBDA680A4401209A6070475B
:1034000010B41A6993F82000094C0A4440F00100F6
:103410005A61002283F820002272064A996801202E
:103420001070DA6810BC0A4401209A60704700BF2F
:10343000280000206801002030B500F10C0203468E
:103440008C4692E8030085B004AA143302E9030015
:1034500093E803001F4ACDE9000108211CF0800F0A
:1034600029D150681C3053681B1A002BFBDBDDE9A7
:103470000205EFF3108472B6C3686B40C36084F337
:10348000108850681C3053681B1A002BFBDB4FEA76
:103490004C0CDDE902045FFA8CFCEFF3108E72B67F
:1034A000C3686340C3608EF31088013911F0FF01D7
:1034B000D4D105B030BDDDE90003EFF3108472B65E
:1034C000C5686B40C36084F310886FEA0C0C5FFA28
:1034D0008CFCC6E7001000E02DE9F84F17460D46BA
:1034E00017F801BBD0F800A04668194C0BF0F001AA
:1034F00091468046FFF7A0FF6368A3EB0A039E4254
:10350000FAD84FEA0B1101F0F0014046FFF794FFA3
:10351000012D6468D8F8086016D0A9440C4D17F83E
:1035200001AB40460AF0F001FFF786FF6B681B1BFA
:103530009E42FBD84FEA0A1101F0F0014046FFF726
:103540007BFF4F456C68EAD1C8F80040BDE8F88FB2
:10355000001000E02DE9F04F00F1140302460F4681
:1035600093E8030097B00AAE02F11C0386E803005B
:1035700093E8030008AD02F1240385E8030093E813
:10358000030006AC02F12C0384E8030093E8030077
:103590000DF1100E02F134038EE8030093E80300EE
:1035A0000DF1080C8CE8030096E803000DF15009BA
:1035B00089E8030095E803000DF14808137A88E8CC
:1035C000030094E803000DF1400A8AE80300DDE9F6
:1035D00014B001909EE803000DF1380A8AE8030058
:1035E0009CE803000DF1300A8AE803007B40EFF30A
:1035F000108A72B6DBF80C1001984840CBF80C002A
:103600008AF31088D90661D498066CD4590677D409
:103610001B0600F183805E4B586821305968091AF7
:103620000029FBDBDDE9140BEFF3108A72B6C168E9
:1036300081EA0B01C1608AF310883901C9B21172A5
:103640005A685348263243689B1A002BFBDB81EAF9
:10365000070396E8030089E8030095E8030088E87B
:10366000030094E8030010AA82E803009EE8030028
:103670000EAA82E803009CE803000CAA82E803007B
:10368000149C1598EFF3108172B6E2684240E26034
:1036900081F31088D8066FD4990662D45A0649D4AB
:1036A0001B0653D43A494A6821324B689B1A002BB7
:1036B000FBDBDDE91423EFF3108172B6D0684340E1
:1036C000D36081F3108817B0BDE8F08FDDE9120BED
:1036D000EFF3108A72B6C16881EA0B01C1608AF308
:1036E0001088980692D5DDE9100BEFF3108A72B6B8
:1036F000C16881EA0B01C1608AF31088590687D539
:10370000DDE90E0BEFF3108A72B6C16881EA0B0196
:10371000C1608AF310881B067FF57DAFDDE90C1AC6
:10372000EFF3108072B6CB6883EA0A03CB6080F3B4
:10373000108870E7DDE90E14EFF3108072B6CA68E6
:103740006240CA6080F310881B06ABD5DDE90C230C
:10375000EFF3108172B6D0684340D36081F31088D4
:10376000A0E7DDE91014EFF3108072B6CA6862407A
:10377000CA6080F3108891E7DDE91214EFF310803E
:1037800072B6CA686240CA6080F3108884E700BFDE
:10379000001000E0074B00221A72C27F8368D0F845
:1037A0000CC00549634442F00102C27783600120E6
:1037B00008707047280000206C010020027D054938
:1037C000034642F0010200201A750872024B0122E2
:1037D0001A7070472800002070010020427D0549C2
:1037E000034642F0010200205A750872024B012282
:1037F0001A707047280000207401002038B5044674
:10380000437F4069D4F818C0856804EBD30003F007
:1038100007020121914090F8282015EA0C0F1ABFE9
:103820000A43D2B28A4380F82820A27F0133DBB258
:103830009A4206D9A268616A63770A44A2600120AD
:1038400038BD237F9A060ED4D4E9032111610A4AB8
:1038500003F0300343F00903002023771072074B75
:1038600001221A7038BD04F10C0393E80300012211
:1038700003F004FC237FEAE7280000206401002015
:10388000D0E9053110B59B68027F0B4004460DD08E
:1038900042F004020277637F5A1C3F2B62770ED8F6
:1038A000A368626A13440120A36010BD5107F2D5DA
:1038B000114A4377BDE810404260FFF79FBF237F66
:1038C0000022A2779A0613D504F10C0393E80300B3
:1038D000012203F0D3FB237F084A03F0300343F0B7
:1038E0000903002023771072054B01221A7010BDC6
:1038F000D4E903211161EFE7FD370108280000201A
:103900006401002038B5027F817F044602F0200365
:1039100009B353B9A368606A224A002103EB80030C
:103920006177C4E90123012038BD45691E4902F0D1
:103930001002002351F8040FA84225D00133072BB1
:10394000F8D10020EFF3108572B6002103F078FA69
:1039500085F31088DEE773B9D0E903311961134BA1
:1039600002F0300242F00902002022771872104B58
:1039700001221A7038BD00F10C03012293E8030004
:1039800003F07CFB227FEAE7A06990FAA0F100280F
:10399000B1FA81F14FF0100008BF4FF0FF3113FB77
:1039A0000010CFE781380108CC8B010828000020E7
:1039B000640100202DE9F047714C80460D46082631
:1039C00002272B0669D4002F40F08F800027626801
:1039D000D8F824306D00EDB21A4463689B1A002BAE
:1039E000FBDBDFF8A091D8F810004A46002352F81C
:1039F000041F88426AD00133072BF8D10020EFF36F
:103A0000108A72B60122002103F01AFA8AF3108894
:103A10006268D8F824301A4463689B1A002BFBDBD9
:103A200098E80300002203F029FB013EC9D1002FD2
:103A300072D05349D8F824304A681A444B689B1A0C
:103A4000002BFBDBD8F81010002359F8042F91420B
:103A500078D00133072BF8D1EFF3108472B601222E
:103A60000021304603F0ECF984F31088D8E90623EE
:103A700043499468D8F824004A681C4002444B68C3
:103A80009B1A002BFBDB98E80300002203F0F6FAF8
:103A9000201E18BF0120BDE8F087012F14D0D8F8F0
:103AA0001800384A002352F8041F814225D0013300
:103AB000072BF8D10020EFF3108772B60122002106
:103AC00003F0BEF987F31088012780E7D8F81420A7
:103AD000002A92FAA2F2B2FA82F24FF0100108BF65
:103AE0004FF0FF3213FB012089E708F1080393E848
:103AF0000300002203F0C2FA68E7D8F81C20002A6D
:103B000092FAA2F2B2FA82F24FF0100108BF4FF01F
:103B1000FF3213FB0120CEE7D8F81800194A3B46C4
:103B200052F8041F81421CD00133072BF8D1EFF368
:103B3000108472B601223846002103F081F984F323
:103B4000108876E7D8F81420002A92FAA2F2B2FA86
:103B500082F24FF0100608BF4FF0FF3213FB06262B
:103B60007AE7D8F81C20002A92FAA2F2B2FA82F27E
:103B70004FF0100708BF4FF0FF3213FB0727D6E7BF
:103B8000001000E0CC8B0108F8B5394E436A72682A
:103B900005460C461A4473689B1A002BFBDB354E16
:103BA000A8693246002352F8041F814243D00133F2
:103BB000072BF8D10020EFF3108772B60122002105
:103BC00003F03EF987F310882969002356F8042F83
:103BD0008A423ED00133072BF8D10020EFF3108644
:103BE00072B60122002103F02BF986F31088204ED3
:103BF0006B6A72681A4473689B1A002BFBDB05F131
:103C0000080393E80300002203F038FA72686B6A35
:103C100017491A444B689B1A002BFBDB95E80300FD
:103C2000002203F02BFA21462846FFF7C3FE0128A5
:103C300008BF0320F8BDEA69002A92FAA2F2B2FA9C
:103C400082F24FF0100108BF4FF0FF3213FB01204A
:103C5000B1E7696991FAA1F20029B2FA82F24FF054
:103C6000100108BF4FF0FF3213FB0120B6E700BF81
:103C7000001000E0CC8B010800F1080370B50022B1
:103C8000054693E8030003F0F9F92A496B6A4A688C
:103C90001A444B689B1A002BFBDB274C28692246F1
:103CA000002352F8041F814228D00133072BF8D19A
:103CB0000020EFF3108672B60122002103F0C0F855
:103CC00086F310881B496B6A4A681A444B689B1A32
:103CD000002BFBDBA969002354F8042F91421BD071
:103CE0000133072BF8D10020EFF3108472B60122C4
:103CF000002103F0A5F884F3108870BD696991FA7A
:103D0000A1F20029B2FA82F24FF0100108BF4FF081
:103D1000FF3213FB0120CCE7EA69002A92FAA2F2F3
:103D2000B2FA82F24FF0100108BF4FF0FF3213FBDE
:103D30000120D9E7001000E0CC8B010810B5184B2A
:103D400002781B78934228D9164B17491B6853F801
:103D500032408C4203EBC2031FD15C680379E27EE0
:103D60001A44E27672B6A27C9A4205D80022FE235B
:103D7000A274237762B610BDD21AD0B2123304F106
:103D80001202234402EB000C13F8011F02F8011F7A
:103D90006245F9D1A07462B610BDFEF70BF800BF02
:103DA0008C01002088010020F94001082DE9F04F26
:103DB0004B4B04781B78A34283B040F28F80494B71
:103DC000494A1B6853F83410914203EBC40340F096
:103DD00085805D684548D5E9031243685B1A9A42BD
:103DE000FBD895E8030002AB03E90300AE8A3F4B22
:103DF000D5F808C05F6805F1160E9EB306EB0E0BF2
:103E00001EF8011B08200A0630D55A68D21BB32AB7
:103E1000FBD972B6DDF800A0D3F80480019EDAF871
:103E20000C207240CAF80C2062B6A8EB0707BC450C
:103E300045D949005A68A2EB0802732AFAD972B62A
:103E4000DDE90092D9F80C707A40C9F80C2062B60E
:103E50005F685A68D21B1C2AFBD901384746D2D169
:103E6000DE45CDD1214B01225B682FE05A68D21B81
:103E7000B32AFBD972B6DDF80090D3F80480DDF8E0
:103E800004A0D9F80C208AEA0202C9F80C205A686A
:103E9000A2EB08021C2AFAD9D9F80C208AEA0202FD
:103EA000C9F80C2062B6A8EB0707BC4507D9013852
:103EB0004FEA41014746A6D1DE45A1D1D2E7DDE96F
:103EC00000130A4A1B040B61536800220848EB6088
:103ED000214603B0BDE8F04FFCF7DABAFDF76AFF00
:103EE0008C010020880100205D460108001000E0E0
:103EF000208A010838B50F4B02781B78934217D9F6
:103F00000D4B0E491B68044653F83200884203EB00
:103F1000C2030DD15D68F8212846FFF78DFA21799B
:103F200001B938BDA2682846BDE83840FFF7D4BAC9
:103F3000FDF740FF8C01002088010020A546010804
:103F400038B50F4B02781B78934217D90D4B0E49A9
:103F50001B68044653F83200884203EBC2030DD1BC
:103F60005D68FA212846FFF767FA217901B938BD63
:103F7000A2682846BDE83840FFF7AEBAFDF71AFF41
:103F80008C01002088010020A54601082DE9F84396
:103F9000194B02781B7893422CD9184B18491B688F
:103FA00053F832408C4203EBC20323D15F68D7E958
:103FB00003231B0413610179D0F808904B1ED7E945
:103FC0000025DBB299B109F101060E4C06EB03089E
:103FD0004B46B146197863689B1A9D42FBD8384618
:103FE000FFF7B8FA4645626801D00136F0E73A605B
:103FF000BDE8F883FDF7DEFE8C010020880100207B
:1040000039470108001000E02DE9F843194B027808
:104010001B7893422BD9184B18491B6853F8324030
:104020008C4203EBC20322D15F68D7E903321A61E5
:104030000179D0F808904B1ED7E90025DBB299B181
:1040400009F101060E4C06EB03084B46B146197800
:1040500063689B1A9D42FBD83846FFF77BFA4645BA
:10406000626801D00136F0E73A60BDE8F883FDF7F9
:10407000A1FE00BF8C010020880100203947010803
:10408000001000E008B52220FCF7E0F8C1690269E1
:10409000B1F808C002FB0CF208B502F580420346F5
:1040A000C068D1F800E0C3F81CE0D20B0260104AEF
:1040B00010680860D86911601A8B50B9944507D010
:1040C000586928B19A680B490244C3E901120120DA
:1040D00008BD9445416801D05A690AB99960F6E76C
:1040E00098680244521A002AF8DA2120FCF7AEF848
:1040F0003C0000208540010810B50479082C09D83F
:10410000221D06490078D200FDF7B4FD044B8477E8
:10411000436010BD2520FCF799F800BFF940010865
:104120003932010838B5057A032D1BD80F490446EA
:1041300020220078FDF79EFD0D4B0E491A78237959
:1041400041609A420CD90C4A126802EBC30152F842
:1041500033200A4B9A4203D14B688577836138BD7F
:10416000FDF728FE2A20FCF771F800BF2541010861
:104170008C0100209537010888010020E523010803
:1041800010B50D49044650220078FDF773FD0B4B26
:1041900022791B780A49416093420BD9094B0A499D
:1041A0001B6853F832408C4203EBC20302D15B68B8
:1041B000036110BDFDF7FEFD814101088C01002067
:1041C000BD37010888010020E523010800B501463C
:1041D00083B0D1E901236846097803F02BF903B0D5
:1041E0005DF804FB30B5044683B0D0E902230179C1
:1041F000684603F01FF9114920782422FDF73AFDA3
:104200000346DDE9000103F10C0282E803000C49DA
:10421000D4E904040988188300220A485C61C3E9D0
:104220000722586039B9084B1A780B2A9CBF0C2218
:104230001A7003B030BDFDF743FD00BFE541010832
:10424000480000208D4001084000002038B51A4B7E
:1042500002781B78934229D9184B19491B680546E7
:1042600053F83200884203EBC2031FD15C6820463A
:10427000FBF7BAFF6A68A260A868E0602A7C0021A8
:104280000B4662F3070362F30F234FF47E42A174DF
:104290002382A4F81B20EB6863771B0608D400B9BF
:1042A00038BD2046BDE83840FBF7DCBFFDF782FD96
:1042B0002320FBF7CBFF00BF8C01002088010020EA
:1042C000F940010838B5104B02781B78934219D990
:1042D0000E4B0F491B68054653F83200884203EB2A
:1042E000C2030FD15C682046FBF77EFF6B68A360BA
:1042F000AA68E260EA682046C4E90423BDE83840C1
:10430000FBF7B0BFFDF756FD8C01002088010020AF
:104310002545010838B5144B02781B78934220D903
:10432000124B13491B68044653F83200884203EBD2
:10433000C20316D15D682846FBF756FF6368AB6081
:10434000A368EB6003B938BDE3682B6123696B6137
:1043500062692A7700236B772846BDE83840FBF76F
:1043600081BFFDF727FD00BF8C01002088010020E0
:104370002541010838B5144B02781B78934221D9A6
:10438000124B13491B68054653F83200884203EB71
:10439000C20317D15C682046FBF726FF0023237574
:1043A0006A6802B938BDE260C4F81630A37672B606
:1043B000084AE368526813442046A360FBF752FFA3
:1043C00062B638BDFDF7F6FC8C01002088010020A4
:1043D00081410108001000E038B5234B02781B78BA
:1043E00093423CD9214B22491B6853F832408C42FE
:1043F00003EBC20333D15D68EFF3108272B61D4B3D
:104400001C68002C2DD02168196082F31088436845
:1044100063608368238172B6EB690022226023B156
:104420002B6A1C602C6262B638BDC5E9074462B6CF
:104430002846FBF7D9FE104A69686368914207D0A5
:104440000E4A2846C5E90123BDE83840FBF70ABFFC
:10445000AA68D21A002AF3DA2120FBF7F7FEFDF74B
:10446000A9FCFDF729FC00BF8C0100208801002079
:10447000E54101083C000020854001088D4001080D
:104480002DE9F041234B02781B78934240D9224B0F
:1044900022491B6853F832408C4203EBC20337D1E8
:1044A0005D680679AB7FB3422FD9D0E902326F2B1A
:1044B0004FEA131027D81A4951F820401CB303F0D3
:1044C0000F0301279F400439002351F8040F844251
:1044D00011D00133072BF8D10020EFF3108872B60A
:1044E000002102F0ADFC88F3108805EBC605C5E994
:1044F0000847BDE8F08197FAA7F11020B1FA81F1E1
:1045000013FB0010E9E702F097FC2420FBF79EFE66
:10451000FDF750FC8C01002088010020F9400108C3
:10452000D08B0108F8B52C22044619490078FDF714
:10453000A1FBD4E901326F2B28D816490646180989
:1045400051F8205015B303F00F0301279F400439A1
:10455000002351F8044FA54210D00133072BF8D1A6
:104560000020EFF3108472B6002102F069FC84F39E
:104570001088094B7360C6E90957F8BD97FAA7F18F
:104580001020B1FA81F113FB0010EAE702F054FCAD
:1045900025450108D08B0108C93301082DE9F04FEA
:1045A000064634222B49007883B0FDF763FB96F86A
:1045B00008A07768D6F80C90BAF1000218BF012263
:1045C0006F2F45D824493B0951F82340002C3FD098
:1045D00007F00F034FF0010808FA03F80546043905
:1045E000002351F8040F84422AD00133072BF8D15D
:1045F0000020EFF3108B72B6002102F021FC8BF348
:104600001088012249466846C5E9054802F04CFE7B
:10461000DDE9000105F10C0383E80300A7EB0907BE
:10462000BAF1000FB7FA87F732692A620CBF01238B
:1046300011237F0943EA47132B7703B0BDE8F08FBE
:1046400098FAA8F11020B1FA81F113FB0010D0E71D
:1046500002F0F2FB9D450108D08B010830B50446FD
:1046600083B041680022684602F01EFEA3681A0467
:1046700013D49DB205F118020949207892B2FDF7D2
:10468000F9FA03469DE8030083E80300E2689A60B4
:1046900022699D821A6103B030BD2820FBF7D6FD48
:1046A0005D460108F0B5224983B005461C2200781A
:1046B000FDF7E0FAA96804460022684602F0F4FD1E
:1046C000DDE9000104F10C0383E803000022E9683E
:1046D000684602F0E9FDDDE9000104F1140383E816
:1046E000030001226968684602F0DEFD2046F821D9
:1046F000FEF7A2FE20212046FEF79EFE72B60D4F69
:10470000002120467E68FEF797FE7B6862B6236034
:1047100029699A1B8A4202D2F01A014461606969D0
:104720008A4202D2F61A0E44A66003B0F0BD00BF62
:10473000A5460108001000E0F0B52E4983B00546FB
:104740003C220078FDF796FA696806460022684622
:1047500002F0AAFDDDE9000106F10C0383E8030085
:104760000022A968684602F09FFDDDE9000106F11C
:10477000140383E803000022E968684602F094FD10
:10478000DDE9000106F11C0383E80300002229692A
:10479000684602F089FDDDE9000106F1240383E8A3
:1047A000030000226969684602F07EFDDDE9000130
:1047B00006F12C0383E803000022A969684602F091
:1047C00073FDDDE9000106F1340383E8030072B6EE
:1047D000094F002130467C68FEF7BCFE7A6862B65D
:1047E000EB69111B994202D2A41A1C44746003B0F5
:1047F000F0BD00BF39470108001000E02DE9F0418D
:10480000244B02781B7893423FD9234B23491B68E2
:1048100053F832408C4203EBC20336D15C68257FEB
:1048200015F0020801D0BDE8F08106798168077BA8
:104830000A2E2CD80A2F2AD8324604F1280005F077
:10484000310503F0ADF845F00205FF00F30084F8F0
:104850001D802577E377A7772EB194F8283003F0F1
:104860003F032A2B0FD0226A0D4B6262636072B63F
:104870000C4B5B6803F5E1432046A360FBF7F2FCB9
:1048800062B6BDE8F081084BF0E7FDF793FA262009
:10489000FBF7DCFC8C010020880100209D4501080D
:1048A000F5320108001000E06133010810B5124B29
:1048B00002781B78934219D9104B11491B6853F8A1
:1048C00032408C4203EBC20210D143685468D0E9F5
:1048D000022118040CD4A08A03EB020C844507D8EB
:1048E0001633E018BDE8104003F05AB8FDF762FA3D
:1048F0002720FBF7ABFC00BF8C01002088010020C3
:104900005D4601082DE9F04390F81080D0F814902E
:10491000B8F1030F85B04BD8294B02781B7893422E
:10492000054648D9274B28491B6853F8320088426E
:1049300003EBC2033FD1254A254914685F6804F19F
:1049400020038B4239D813600021202202AE20467A
:1049500002F0A6FF69680122304602F0BDFB96E82E
:10496000030084E803000022A968684602F09CFC6A
:10497000DDE9000104F1080383E803000022E9688F
:10498000684602F091FCDDE9000104F1100383E8C0
:10499000030084F81C80C4F818903B7C13F0060FC9
:1049A00006D143F002033C603B7405B0BDE8F083E0
:1049B0001C20FBF74BFCFDF7FDF91120FBF746FC33
:1049C0008C01002088010020E5230108B0000020B0
:1049D00000FE01202DE9F0412F4B02781B78934215
:1049E00084B054D92D4B2E491B68054653F832002C
:1049F000884203EBC2034AD12A4A2B491468D3F8F0
:104A0000048004F128038B4243D81360002128223C
:104A1000204602F045FFEB6863622B690122934058
:104A200084F8203002AF6968384602F03DFC97E810
:104A3000030084E8030001226968684602F04CFB29
:104A4000DDE9000104F1100383E803000122A968F5
:104A5000384602F029FC97E8030004F1080383E8D4
:104A600003000122A968684602F036FBDDE9000177
:104A700004F1180383E8030098F80830C8F80040F0
:104A800043F0010388F8083004B0BDE8F081FDF779
:104A900091F91120FBF7DAFB8C010020880100203E
:104AA00021290108B000002000FE0120F0B51B4BB9
:104AB00002781B78934287B02DD9194B19491B688E
:104AC000044653F83200884203EBC20323D15D68E9
:104AD000154E2869B923ADF81430022205AB012127
:104AE0007768FEF70FFA9DF81520736822F08002B0
:104AF000202A0ED8288B21780290A87E02EB820C07
:104B000060440190EC8A09480094DB1B3A46FBF7AD
:104B1000BFFC07B0F0BDFDF74DF900BF8C010020D0
:104B20008801002081410108001000E0F08901089F
:104B30002DE9F04F1E46037A046883B0DF0715465F
:104B4000DDF830900A4640F1A280002940F015813E
:104B500094F82010204641F00101FFF715F80028D5
:104B600040F06181013EB24D01905FFA86F84FF04E
:104B7000100ADFF8C0B2A0695A46002352F8041F99
:104B8000814200F030810133072BF7D10020EFF391
:104B9000108672B60122002102F052F986F31088C5
:104BA00008270026CDF800806A68636A1A446B689B
:104BB0009B1A002BFBDB21695B46002053F8042F76
:104BC0008A4200F0F08001300728F7D10020EFF38F
:104BD000108872B60122002102F032F988F31088A1
:104BE0006A68636A1A446B689B1A002BFBDBD4E982
:104BF00006329B687600134094E803000022F6B268
:104C0000934218BF46F0010602F038FA013FCBD1BB
:104C1000DDF80080B8F1000F40F0D1806A68636A67
:104C20001A446B689B1A002BFBDB216900235BF89D
:104C3000042F8A4200F0CB800133072BF7D1EFF32A
:104C4000108B72B601223846002102F0F9F88BF37E
:104C500010886A68636A1A446B689B1A002BFBDB36
:104C600008F1FF3894E8030000225FFA88F802F0A8
:104C700005FAB8F1FF0F09F8016B7FF47AAF019FD5
:104C80002046FEF7F9FF384603B0BDE8F08FDFF8A5
:104C9000A0810179D8F8043003F52F2B41F0010AE7
:104CA0000BF5486B002A39D151465B463246204607
:104CB00002F07CFB0128074600F0B380002840F09A
:104CC000AC80721E5A48D2B240F20125636913F4D7
:104CD000886F04D14368A3EB0B03002BF6DBEFF3E3
:104CE000108172B62369012ADBB200F0888081F35B
:104CF0001088013AD2B2FF2A09F8013BE6D14C4AAA
:104D000005E05368A3EB0B03002B80F28E806369F0
:104D10005D06B8D55805F4D50127B4E75B462046B3
:104D2000009202F043FB009A012807462A4408BF7C
:104D3000032797B915F8013B23616369190608D465
:104D40005B0565D4D8F80430A3EB0B03002BF4DB30
:104D500002279542EDD1002FA6D040F20123344A1C
:104D6000236006E05B058ED45368A3EB0B03002B96
:104D700089DA6369190686D5F4E70091204694F82C
:104D80002010FEF701FF002840D1009A05EB020831
:104D900005E015F8011BFEF70DFE00283FD1454543
:104DA0002046F6D1D4E6626992FAA2F3002AB3FA59
:104DB00083F308BF4FF0FF3310FB0A3007E704F11D
:104DC000080393E803003A4602F058F926E76769BA
:104DD000002F97FAA7F7B7FA87F708BF4FF0FF370A
:104DE00013FB0A772BE7E269002A92FAA2F2B2FAE1
:104DF00082F208BF4FF0FF3213FB0A20C7E625609E
:104E000081F31088002209F8013B5FE7032737E7A9
:104E100095424FF001078CD19DE702279DE7074699
:104E20002EE7042799E704272AE702272BE700BF8C
:104E3000001000E0CC8B01082DE9F04F544A85B0FA
:104E400012780678B24202AF40F2A080514A52492D
:104E50001268034652F83600884202EBC60240F060
:104E6000958093F80C80506893F804909C6808F142
:104E7000070202F4FC72ADEB020D0DF1080BB8F164
:104E8000000F14D0CDF800B0224649464346FFF744
:104E90004FFE5FFA80FA4148CDF800B043465246D3
:104EA0003146FBF7F5FA0C37BD46BDE8F08F037AC3
:104EB0000568DB0716D595F820102846FEF764FE36
:104EC000824600284ED1A14406E014F8011B284672
:104ED000FEF770FD00284DD1A145F6D12846FEF71A
:104EE000CBFED8E7DFF8B8A00179DAF8043003F593
:104EF0002F2303F548634A4628467B6002F056FAA2
:104F000009F1FF3201287B6808BF0320D2B2B9F152
:104F1000000F13D0611C114480B914F8012B2A61D1
:104F20006A6912F0800F07D152051ED4DAF8042006
:104F3000D21A002AF4DB02208C42EDD140F2012289
:104F400017492A6005E0520516D44A68D21A002A89
:104F500017DA6A6912F0800AF5D100289BD05FFA4F
:104F600080FA98E74FF0030AB8E78C424FF001004F
:104F7000D2D1E3E78246B1E74FF0010A00288AD098
:104F8000EDE74FF0020A002885D0E8E7FCF712FFB2
:104F90008C0100208801002021290108448A010891
:104FA000001000E070B582B016461D460A46009318
:104FB00004469DF818100F483346FBF769FA15B9F7
:104FC0002369B3420FD9637F227F0133DBB29A4258
:104FD000637701D902B070BD074B9B7A3BB10023C8
:104FE000637702B070BD6369B342F8D2EBE7292062
:104FF000FBF72CF9088A010828000020F0B587B0DB
:1050000004460022F2230393049203AB8DF814208C
:10501000006909220D460121FDF774FFA37E9DF86A
:105020000E2003F11B010F2A21441FD902F0F000CA
:10503000F0281BD023444FF0FF32C1F80120DA766C
:10504000A37E0533DBB22E2BA37652D8237D23F02B
:105050000103237572B6364AE3685268134420464A
:10506000A360FBF7FFF862B607B0F0BD9DF8100033
:105070000F2839D89DF812C0BCF10F0F03D90CF0DE
:10508000F006F02ED6D19DF81360902ED2D19DF867
:10509000146026F08006202ECCD802F01F0242EACF
:1050A0004C124FEA8C0C0CF0600C9DF80F709DF8C0
:1050B00011E000F01F004CEA00004FF0000C67F315
:1050C000070C6EF30F2C234462F3174C60F31F6C34
:1050D0009DF80D20DA76C1F801C0A37E0533DBB25E
:1050E0002E2BA37613D905E000F0F006F02EA1D107
:1050F000C0E7002604F11B020092E28A0D4829460F
:10510000FBF7C6F9E38A00220133A276E3821E2E62
:105110000AD9238B01332383074B00221A72074BD2
:1051200001221A7007B0F0BD012E8FD9F4E700BF3D
:10513000001000E0E4890108280000207001002030
:10514000027E0549034642F0010200201A760872E9
:10515000024B01221A7070472800002078010020BD
:10516000027E0549034642F0010200201A760872C9
:10517000024B01221A707047280000207C01002099
:10518000427B0169D20703460AD5428D03200132D2
:105190005A85587389009A680A4401209A607047BA
:1051A000D0E9062092680240F5D110B4064C0120E7
:1051B00058732272054A10709A6810BCC9000A44DC
:1051C00001209A60704700BF280000208001002065
:1051D000027FC168034642B1028C01328900028419
:1051E0009A680A4401209A607047D0E904209268C6
:1051F0000240F5D110B4064C012018772272054AFE
:1052000010709A6810BCC9000A4401209A60704767
:105210002800002084010020027D0346D00702D52B
:10522000198B01311983910704D5D3E914018068E2
:10523000084208D1074942F0010200201A7508729D
:10524000054A01211170D3E902210A4401209A6024
:10525000704700BF2800002090010020027D510708
:1052600003460ED5C27D0132C275084A0021117273
:105270009A68D3F80CC006490120624408709A600D
:10528000704742F004020275EFE700BF28000020DB
:105290009401002030B5847D521A24B1651E01218D
:1052A000A9400A44E240017FFE2A01F1030C01F10A
:1052B00001045FFA8CFC01F1020E0DD8DDB2D2B20E
:1052C000C3F3072301444A770219557700EB0E0216
:1052D000537780F81CC030BDFF2201250023F1E781
:1052E00072B6024B024A9D461047704700000220EA
:1052F000196C0108FEE700BF174A136813F0280F66
:1053000014D1190600D47047134BDA681206FAD587
:10531000124913480A780078904215D910B4114CFC
:10532000501C0870A25C5A6010BC704751687E29FE
:105330000ED00D480278BF2AE3D802F1010C80F8A4
:1053400000C00A488154DCE742F22C02DA60704760
:10535000074A00201072ECE700380140AD00002041
:10536000AC0000204C00002060020020A0010020C2
:105370002800002008B53220FAF768FF70B55022E7
:1053800004461B490078FCF775FCA368194A426083
:10539000BBB1012B25D1184A217912788A421ED936
:1053A000164A174D126852F83160AE4202EBC10244
:1053B00015D152680375E3680261012B14D8837517
:1053C00070BD0D4A217912788A4208D90B4A0D4DD9
:1053D000126852F83160AE4202EBC102E9D0FCF72C
:1053E000E9FC2C20FAF732FF2B20FAF72FFF00BF41
:1053F0007D530108DD3701088C0100208801002061
:1054000021290108E523010810B50D49044654225D
:105410000078FCF72FFC0B4B22791B780A4941607E
:1054200093420BD9094B0A491B6853F832408C420E
:1054300003EBC20302D15B68036110BDFCF7BAFC49
:10544000095401088C010020415101088801002005
:105450002129010810B50D49044654220078FCF7B3
:1054600009FC0B4B22791B780A49416093420BD906
:10547000094B0A491B6853F832408C4203EBC203C4
:1054800002D15B68036110BDFCF794FC5554010820
:105490008C010020615101088801002021290108A8
:1054A00010B50F4B027819788A4217D20D4B1B6842
:1054B00053F8324003EBC20C0B4A94420ED10279EE
:1054C000DCF804008A4209D253F8324007498C4282
:1054D00003EBC20302D15B68036610BDFCF76AFCF4
:1054E0008C01002088010020017301088557010804
:1054F00010B50F4B027819788A4217D20D4B1B68F2
:1055000053F8324003EBC20C0B4A94420ED102799D
:10551000DCF804008A4209D253F8324007498C4231
:1055200003EBC20302D15B68836510BDFCF742FC4C
:105530008C0100208801002039710108855701087D
:1055400010B50D4904465C220078FCF793FB0B4B29
:1055500022791B780A49416093420BD9094B0A49C9
:105560001B6853F832408C4203EBC20302D15B68E4
:10557000036110BDFCF71EFC415501088C010020A1
:1055800019520108880100202129010810B50F4B8C
:10559000027819788A4217D20D4B1B6853F83240B3
:1055A00003EBC20C0B4A94420ED10279DCF80400E2
:1055B0008A4209D253F8324007498C4203EBC203B6
:1055C00002D15B68836510BDFCF7F4FB8C01002001
:1055D00088010020415501088557010838B5057A32
:1055E000052D1ED81249044650220078FCF742FBD4
:1055F000104B11491A78237941609A420FD90F4A0A
:10560000126802EBC30152F833200D4B9A4206D1C7
:105610004B6803611B7CDB0706D5457538BDFCF77D
:10562000C9FB3120FAF712FE3020FAF70FFE00BF57
:10563000DD5501088C0100205D5201088801002021
:10564000E523010810B5134B02781B7893421DD94E
:10565000114B12491B6853F832408C4203EBC203D2
:1056600014D15B6800225A701978027991420FD9DF
:10567000C2EBC20203EB82030C33021D183052F856
:10568000041F43F8041F8242F9D110BDFCF792FBBE
:10569000FFF770FE8C010020880100204D61010899
:1056A00010B5114B02781B78934218D90F4B104953
:1056B0001B6853F832408C4203EBC2030FD15B6886
:1056C00000225A701978027991420AD9C2EBC202BB
:1056D00003EB820382685A62C2689A6210BDFCF7CB
:1056E00069FBFFF747FE00BF8C0100208801002006
:1056F0004D61010810B50E4B02781B78934214D906
:105700000C4B0D491B6853F832408C4203EBC2032B
:105710000BD15B6842689A608268DA60C26802F006
:105720003F02DA7002691A7110BDFCF743FB00BF3B
:105730008C010020880100204D61010810B50E4B3E
:1057400002781B78934213D90C4B0D491B6853F810
:1057500032408C4203EBC2030AD15B6802791978AC
:10576000914207D35A70826802F03F029A7010BDCE
:10577000FCF720FBFFF7FEFD8C01002088010020D4
:105780004D61010810B5342204460B490078FCF73E
:1057900071FA0A4B22791B7893420BD9084B0949BD
:1057A0001B6853F832408C4203EBC20302D15B68A2
:1057B000836010BDFCF7FEFA855701088C010020BC
:1057C000880100204D61010810B50B4B02781B7851
:1057D00093420ED9094B0A491B6853F832408C4258
:1057E00003EBC20305D15B6842681A6082685A60A5
:1057F00010BDFCF7DFFA00BF8C01002088010020FB
:105800008557010810B50B4B02781B7893420ED9CF
:10581000094B0A491B6853F832408C4203EBC20320
:1058200005D15B6842681A758268DA6010BDFCF7C2
:10583000C1FA00BF8C0100208801002085570108B3
:1058400038B5144B02781B78934221D9124B134977
:105850001B68054653F83200884203EBC20317D198
:105860005C682046FAF7C0FC002363756A6802B9D9
:1058700038BDE260E375A361237772B6084AE36836
:10588000526813442046A360FAF7ECFC62B638BDB8
:10589000FCF790FA8C010020880100207D5301085C
:1058A000001000E038B5154B02781B78934222D9DE
:1058B000134B14491B68054653F83200884203EB2A
:1058C000C20318D15C682046FAF78EFC00232376C9
:1058D0006A6802B938BDE260C4F81A30A377636120
:1058E00072B6094AE368526813442046A360FAF787
:1058F000B9FC62B638BDFCF75DFA00BF8C01002030
:105900008801002009540108001000E038B5154B4B
:1059100002781B78934222D9134B14491B68054621
:1059200053F83200884203EBC20318D15C6820466A
:10593000FAF75AFC002323766A6802B938BDE260A0
:10594000C4F81A30A377636172B6094AE3685268F3
:1059500013442046A360FAF785FC62B638BDFCF715
:1059600029FA00BF8C01002088010020555401084D
:10597000001000E038B5174B02781B78934227D906
:10598000154B16491B68054653F83200884203EB55
:10599000C2031DD15C682046FAF726FC002363731E
:1059A000636169682161D4E9080279B11204026176
:1059B000A36284F82C3072B6094A236952681344F2
:1059C0002046A360FAF74EFC62B638BD026138BDCE
:1059D000FCF7F0F98C010020880100200173010818
:1059E000001000E038B5154B02781B78934222D99D
:1059F000134B14491B68054653F83200884203EBE9
:105A0000C20318D15C682046FAF7EEFB0022227729
:105A10006B68E36003B938BDC4F81E2084F8222007
:105A200072B6094AE368526813442046A360FAF745
:105A300019FC62B638BDFCF7BDF900BF8C0100202F
:105A40008801002039710108001000E038B5164BBC
:105A500002781B78934224D9144B15491B680546DC
:105A600053F83200884203EBC2031AD15C68204627
:105A7000FAF7BAFB237D23F0010323756B6803B9A2
:105A800038BD0022E360C4F81620A27672B6094A37
:105A9000E368526813442046A360FAF7E3FB62B65A
:105AA00038BDFCF787F900BF8C0100208801002079
:105AB00041550108001000E038B5134B02781B78FF
:105AC00093421FD9114B12491B68044653F8320008
:105AD000884203EBC20315D15D682846FAF784FBC0
